:020000040800F2
:10000000000002201D780008F1470008F3470008AF
:10001000F5470008F7470008F9470008000000000E
:10002000000000000000000000000000FB47000886
:10003000FD47000800000000FF47000801480008D5
:100040006D7800086D7800086D7800086D780008FC
:100050006D7800086D7800086D7800086D780008EC
:100060006D7800086D7800086D7800086D780008DC
:100070006D7800086D7800086D7800080948000860
:100080006D7800086D7800086D7800086D780008BC
:100090006D7800086D7800086D7800086D780008AC
:1000A0006D7800086D7800086D7800086D7800089C
:1000B0006D7800086D7800086D7800086D7800088C
:1000C0006D7800086D7800086D7800086D7800087C
:1000D0006D7800086D7800086D7800086D7800086C
:1000E0006D7800086D7800086D7800086D7800085C
:1000F0006D7800086D7800086D7800086D7800084C
:100100006D7800086D7800086D7800086D7800083B
:100110006D7800086D7800086D7800086D7800082B
:100120006D7800086D7800086D7800086D7800081B
:100130006D78000800000000000000006D780008E5
:100140006D7800086D7800086D780008194800087F
:100150006D7800086D7800086D7800086D780008EB
:100160006D7800086D7800086D7800086D780008DB
:100170006D7800086D7800080000000000000000A5
:080180006D7800086D7800089D
:1001880053B94AB9002908BF00281CBF4FF0FF31F6
:100198004FF0FF3000F00CB8ADF1080C6DE904CE5B
:1001A80007F09CFBDDF804E0DDE9022304B07047AA
:1001B800704700BF10B5054C237833B9044B13B111
:1001C8000448AFF300800123237010BD0001002014
:1001D80000000000A07B000808B5034B1BB10349D1
:1001E8000348AFF3008008BD0000000004010020B0
:1001F800A07B000808B50A464FF4FA630146024896
:1002080003F00DFC08BD00BF8403002008B50A46B2
:1002180041F288330146024803F00DFE08BD00BFD5
:100228008403002010B582B003238DF80430030C3A
:100238008DF80530030A8DF806308DF807000C4C50
:1002480000221021204601F0F9FB04210DEB0100EA
:10025800FFF7D0FF01216846FFF7D8FF01221021E0
:10026800204601F0EBFB9DF8000002B010BD00BF76
:100278000008024010B582B006238DF80730094CFB
:1002880000221021204601F0D9FB01210DF10700C1
:10029800FFF7B0FF01221021204601F0CFFB02B08A
:1002A80010BD00BF0008024070B506460D46002488
:1002B80005E004EB0630FFF7B5FF28550134B4F527
:1002C800805FF6D370BD000030B583B005238DF88C
:1002D800073000F0CDFE0546114C002210212046C3
:1002E80001F0ACFB01210DF10700FFF783FF0121AD
:1002F8000DF10600FFF78AFF01221021204601F0C8
:100308009DFB00F0B5FE401BB0F5FA7F05D89DF8BF
:10031800060010F00100DFD100E0012003B030BD7D
:100328000008024010B582B00446FFF7A3FF20235F
:100338008DF80430230C8DF80530230A8DF806302B
:100348008DF80740094C00221021204601F076FB69
:1003580004210DEB0100FFF74DFF0122102120467B
:1003680001F06CFBFFF7B0FF02B010BD00080240BF
:10037800F0B5C3B007460E46FFF77CFF002425E022
:10038800210201EB073302228DF804201A0C8DF8A4
:1003980005201A0A8DF806208DF807304FF4807270
:1003A800314402A807F08CFA0B4D00221021284690
:1003B80001F044FB4FF4827101A8FFF71BFF0122F3
:1003C8001021284601F03AFB0134E4B20F2CD7D9AA
:1003D800FFF77AFF43B0F0BD0008024038B5054684
:1003E80000F120048021204600F0CDF860BB0121F7
:1003F800204600F0AFF850BB0121204600F078F805
:1004080040BB0021204600F0F3F830BB042385F8F8
:1004180033300021204600F048F908BB002120466F
:1004280000F034F8F8B9042385F834300021204668
:1004380000F0C0F9D0B90621204600F040F8C0B954
:10044800012385F8303038BD4FF0FF30FBE74FF01F
:10045800FF30F8E74FF0FF30F5E74FF0FF30F2E7F5
:100468004FF0FF30EFE74FF0FF30ECE74FF0FF3091
:10047800E9E74FF0FF30E6E710B54468C068A047E9
:1004880010BD10B50468C068A04710BD30B583B072
:1004980004460D46012301AA1021FFF7EDFF08B11C
:1004A80003B030BD9DF8043065F383038DF8043044
:1004B800012301AA10212046FFF7E3FFF0E730B53A
:1004C80083B004460D46012301AA1121FFF7D4FF8A
:1004D80008B103B030BD9DF8043065F343038DF8CF
:1004E8000430012301AA11212046FFF7CAFFF0E7D3
:1004F80030B583B004460D46012301AA1221FFF747
:10050800BBFF08B103B030BD9DF8043065F3861316
:100518008DF80430012301AA12212046FFF7B1FF0C
:10052800F0E730B583B004460D46012301AA194609
:10053800FFF7A2FF08B103B030BD9DF8043065F3A2
:1005480087138DF80430012301AA19462046FFF7C6
:1005580098FFF0E730B583B004460D46012301AAA1
:100568001221FFF789FF08B103B030BD9DF80430B0
:1005780065F382038DF80430012301AA1221204675
:10058800FFF77FFFF0E730B583B005460C4601233F
:100598006A461821FFF770FF034618B1D3B1184611
:1005A80003B030BDE3099DF8002063F341028DF8E4
:1005B800002001236A4618212846FFF762FF0346F8
:1005C8000028ECD1012301AA62212846FFF754FF35
:1005D8000346E3E79DF8043064F3C4038DF8043060
:1005E800012301AA62212846FFF74BFF0346D6E7FD
:1005F80030B583B004460D46012301AA0A21FFF74E
:100608003BFF08B103B030BD9DF8043065F3020329
:100618008DF80430012301AA0A212046FFF731FF93
:10062800F0E738B504460D460221FFF77AFF00B11E
:1006380038BD02232A4646212046FFF71DFF002821
:10064800F6D100212046FFF76CFFF1E730B583B003
:1006580005460C460221FFF764FF08B103B030BD20
:10066800012301AA5F212846FFF706FF0028F5D1DC
:100678009DF80430C3F3C103032B13D8DFE803F05C
:1006880002090C0F0023237000212846FFF749FFB9
:10069800E4E701232370F7E702232370F4E7032339
:1006A8002370F1E700232370EEE730B583B00446EA
:1006B8000D4601A9FFF7B5FF0246C8BB9DF8041017
:1006C80001F00103C1F340000343C1F38000034379
:1006D800C1F3C0000343C1F300100343C1F340104A
:1006E8000343C1F38010034343EAD1139DF8051077
:1006F80001F001000343C1F340000343C1F380004C
:100708000343C1F3C0000343C1F300100343C1F323
:1007180040100343C1F38010034353EAD1130CD1B3
:1007280042B901236A4610212046FFF7A5FE02467A
:10073800002A31D0104603B030BD0DF10301204628
:10074800FFF784FF02460028F4D19DF80330032BFD
:10075800E6D8DFE803F002060B13002DE0D10125EF
:10076800DEE78DB1012DDBD10225D9E7012D0DD0B2
:10077800022D0DD0002DD3D10325D1E7032DCFD8DD
:10078800DFE805F0080808080225C9E70325C7E7D8
:100798000325C5E70425C3E79DF8003065F3071373
:1007A8008DF8003001236A4610212046FFF769FEC4
:1007B8000246BFE730B583B004460D4601A9FFF7EE
:1007C80030FF0246C8BB9DF8041001F00103C1F3D5
:1007D80040000343C1F380000343C1F3C000034357
:1007E800C1F300100343C1F340100343C1F3801069
:1007F800034343EAD1139DF8051001F001000343B8
:10080800C1F340000343C1F380000343C1F3C000B8
:100818000343C1F300100343C1F340100343C1F382
:100828008010034353EAD1130CD142B901236A461D
:1008380011212046FFF720FE0246002A31D010463B
:1008480003B030BD0DF103012046FFF7FFFE02465D
:100858000028F4D19DF80330032BE6D8DFE803F035
:1008680002060B13002DE0D10125DEE78DB1012D25
:10087800DBD10225D9E7012D0DD0022D0DD0002D99
:10088800D3D10325D1E7032DCFD8DFE805F0080839
:1008980008080225C9E70325C7E70325C5E7042596
:1008A800C3E79DF8003065F307138DF80030012386
:1008B8006A4611212046FFF7E4FD0246BFE7000023
:1008C8002DE9F0478AB0002405940694079408940B
:1008D80009940094494B1A6B42F004021A631A6B8C
:1008E80002F004020092009A01941A6B42F080020E
:1008F8001A631A6B02F080020192019A02941A6B31
:1009080042F001021A631A6B02F001020292029A83
:1009180003941A6B42F002021A631A6B02F0020285
:100928000392039A04941A6B42F008021A631B6B31
:1009380003F008030493049B314D224640F28911C9
:10094800284601F07BF801223021284601F076F88C
:100958002C4F22462121384601F070F8DFF8A88094
:1009680022460421404601F069F840F289130593B4
:10097800012606960794089405A9284600F068FF02
:1009880030230593069607940323089305A9284660
:1009980000F05EFF2123059306960794089405A9A5
:1009A800384600F055FF022305930694079405A9DD
:1009B800384600F04DFF4FF00409CDF814904FF47D
:1009C800881ACDF818A0079405A9384600F040FF0A
:1009D80040230593CDF818A0079405A9284600F0F0
:1009E80037FFCDF8149006960794089405A9404659
:1009F80000F02EFF0AB0BDE8F08700BF00380240C3
:100A08000008024000040240000C024000B583B018
:100A180000210191094B1A6B42F400121A631B6BF7
:100A280003F400130193019B0A460F2000F01EFDFA
:100A38000F2000F02BFD03B05DF804FB00380240E6
:100A480072B6FEE700B585B00023009301930293C8
:100A580003931348134A026043608360036103767B
:100A680080F82030C362104A8262C3600122C261EA
:100A780080F83030426100F0AFFB68B9042300937E
:100A880001230193002302936946054800F0D0FB37
:100A980020B905B05DF804FBFFF7D2FFFFF7D0FFE0
:100AA80000050020002001400100000F08B50A4899
:100AB8000A4B03600A4B436000238360C3604FF412
:100AC8008042026143618361C361036200F0BCFF3D
:100AD80000B908BDFFF7B4FFA4040020005400408B
:100AE800801A060008B50A480A4B03600A4B43609F
:100AF80000238360C3604FF48042026143618361D5
:100B0800C361036200F0A0FF00B908BDFFF798FFBA
:100B18005004002000580040801A060008B50A4812
:100B28000A4B03600A4B436000238360C3604FF4A1
:100B38008042026143618361C361036200F084FF04
:100B480000B908BDFFF77CFFFC030020005C0040F3
:100B5800A086010008B50948094B036000234360DB
:100B68007F228260FF22C26003614361836102F0D9
:100B7800BDFD00B908BDFFF763FF00BFDC0300201F
:100B88000028004008B50D480D4B03604FF48273F0
:100B9800436000238360C360036143614FF40072C4
:100BA8008261C3610362436283620A23C36202F003
:100BB800D7FE00B908BDFFF743FF00BF840300203C
:100BC8000030014008B50D480D4B03604FF48273A7
:100BD800436000238360C360036143614FF4802254
:100BE80082610822C2610362436283620A23C3628C
:100BF80002F0B6FE00B908BDFFF722FF2C03002063
:100C08000038004008B50D480D4B03604FF482735F
:100C1800436000238360C360036143614FF4802213
:100C28008261C3610362436283620A23C36202F082
:100C380097FE00B908BDFFF703FF00BFD4020020EC
:100C4800003C004000B58FB000230A930B930C932F
:100C58000D930893099301930293039304930593C7
:100C6800069307931D481E4A026043608360592219
:100C7800C2600361836103F0D3FA20BB4FF4805351
:100C88000A930AA9154803F031FCF0B9134803F098
:100C98001FFBE0B900230893099308A90F4803F044
:100CA800A5FCB0B960230193002202920392059239
:100CB80001A90A4803F09FFB68B9084801F0E6F962
:100CC8000FB05DF804FBFFF7BBFEFFF7B9FEFFF7B7
:100CD800B7FEFFF7B5FEFFF7B3FE00BF8C0200209A
:100CE8000004004000B58FB000230A930B930C93C7
:100CF8000D93089309930193029303930493059327
:100D0800069307932248234A0260436083604FF6A4
:100D1800FF72C2600361836103F082FA58BB4FF42B
:100D280080530A930AA91A4803F0E0FB28BB184825
:100D380003F0CEFA18BB00230893099308A91448B6
:100D480003F054FCE8B96023019300230293039352
:100D58000593082201A90E4803F04DFB98B90C220F
:100D680001A90B4803F047FB78B9094801F08EF94F
:100D78000FB05DF804FBFFF763FEFFF761FEFFF7B6
:100D88005FFEFFF75DFEFFF75BFEFFF759FE00BF52
:100D9800440200200008004000B58FB000230A93E9
:100DA8000B930C930D930893099301930293039368
:100DB80004930593069307933048314A02604360D1
:100DC80083604FF0FF32C2600361836103F028FA49
:100DD800002840D14FF480530A930AA9274803F00A
:100DE80085FB002839D1254803F072FA002836D14E
:100DF800224803F041FA002833D1002308930993CD
:100E080008A91E4803F0F2FB68BB60230193002287
:100E180002920392059201A9184803F0ECFA20BB4C
:100E280004220DEB0201154803F0E5FAF8B908228F
:100E380001A9124803F0DFFAD8B9002301930C2264
:100E480001A90E4803F0A8FAA8B90C4801F01EF948
:100E58000FB05DF804FBFFF7F3FDFFF7F1FDFFF7B7
:100E6800EFFDFFF7EDFDFFF7EBFDFFF7E9FDFFF7FE
:100E7800E7FDFFF7E5FDFFF7E3FD00BFFC010020FC
:100E8800000C004008B50A480A4B03604FF4E133F0
:100E9800436000238360C36003610C224261836165
:100EA800C36103F071FC00B908BDFFF7C9FD00BFBD
:100EB800540100200010014008B50448044B0360A9
:100EC80000F0FCFA00B908BDFFF7BAFDF8040020ED
:100ED8000030024000B595B03022002108A806F085
:100EE800C2FC00230393049305930693079301938D
:100EF800214A116C41F080511164126C02F0805249
:100F08000192019A02931D4B1A6842F480421A60BA
:100F18001B6803F480430293029B092308934FF450
:100F28008033099301230D9302230E934FF480021B
:100F38000F92042210929022119212930623139377
:100F480008A801F097FF98B90F230393022304938D
:100F5800002305934FF4A05306934FF4805307934F
:100F6800042103A802F0F0F920B915B05DF804FBDC
:100F7800FFF766FDFFF764FD00380240007000408F
:100F880008B500F04FF8FFF7A5FFFFF799FCFFF74A
:100F98003DFDFFF757FDFFF789FDFFF7A3FDFFF7BD
:100FA800BDFDFFF7D7FDFFF7EDFDFFF70BFEFFF7E0
:100FB80029FEFFF747FEFFF795FEFFF7EDFEFFF767
:100FC80061FF04F0F7F9FFF777FF0248FFF706FA29
:100FD800FEE700BF1C01002010B504460E4B1A782E
:100FE8004FF47A73B3FBF2F30C4A1068B0FBF3F0DA
:100FF80000F050FA68B90F2C01D901200AE000224C
:1010080021464FF0FF3000F031FA054B1C600020FC
:1010180000E0012010BD00BF0000002008000020F3
:101028000400002008B50B4B1A6842F400721A60DD
:101038001A6842F480621A601A6842F480721A6070
:10104800032000F001FA0F20FFF7C6FF00F0DAFDD9
:10105800002008BD003C0240034A1168034B1B787E
:101068000B441360704700BF4805002000000020B3
:10107800014B1868704700BF4805002038B5044682
:10108800FFF7F6FF0546B4F1FF3F02D0044B1B788B
:101098001C44FFF7EDFF401BA042FAD338BD00BF48
:1010A800000000204A4B5A6822F440325A605A68BD
:1010B80041680A435A600268536823F48073536096
:1010C80002685368016943EA012353600268536860
:1010D80023F0407353600268536881680B43536080
:1010E8000268936823F40063936002689368C16898
:1010F8000B439360826A374B9A4257D002689368D1
:1011080023F07063936002689368816A0B4393606D
:101118000268936823F04053936002689368C16A39
:101128000B4393600268936823F00203936002689C
:101138009368017E43EA4103936090F82030002BC6
:101148003FD00268536843F40063536002685368F1
:1011580023F46043536001684B68426A013A43EAEA
:1011680042334B600268D36A23F47003D362016888
:10117800CB6AC269013A43EA0253CB6202689368B8
:1011880023F4007393600268936890F8301043EA80
:10119800412393600268936823F480639360026834
:1011A8009368416943EA81239360704702689368B2
:1011B80023F0706393600268936823F04053936050
:1011C800B0E70268536823F400635360CAE700BFBE
:1011D800002301400100000F38B310B50446036C2A
:1011E80043B1236C13F0100F0BD00120002384F8B7
:1011F8003C3010BD00F022FD0023636484F83C30CD
:10120800EFE7236C23F4885323F0020343F002032F
:1012180023642046FFF746FF00206064236C23F018
:10122800030343F001032364E0E701207047000053
:1012380030B482B00022019290F83C20012A00F0DC
:10124800B6800346012280F83C200A68092A40D962
:101258000468E06892B202EB42021E3A4FF0070CB3
:101268000CFA02F220EA0202E2601C68E0680A88CE
:1012780002EB42021E3A8D6805FA02F20243E2606E
:101288004A68062A3CD81C68606B02EB8202053A61
:101298004FF01F0C0CFA02F220EA020262631C688B
:1012A800606B4A6802EB8202053AB1F800C00CFA9A
:1012B80002F20243626318683E4A904250D01868AE
:1012C8003C4A904255D0002083F83C0002B030BC24
:1012D80070470468206992B202EB42024FF0070C93
:1012E8000CFA02F220EA020222611C6820690A88CC
:1012F80002EB42028D6805FA02F202432261BFE75F
:101308000C2A16D81D68286B02EB8202233A1F2488
:1013180004FA02F220EA02022A631D68286B4A686E
:1013280002EB8202233A0C8804FA02F202432A638F
:10133800C1E71D68E86A02EB8202413A1F2404FAF9
:1013480002F220EA0202EA621D68E86A4A6802EBD1
:101358008202413A0C8804FA02F20243EA62AAE7DE
:101368000A68122AABD11448426842F480024260EB
:10137800A5E70A68103A012AA5D80F48426842F43E
:10138800000242600A68102A9DD10C4A12680C4972
:10139800A1FB0212920C02EB82025200019202E0BF
:1013A800019A013A0192019A002AF9D18BE70220A9
:1013B8008CE700BF00200140002301400800002006
:1013C80083DE1B43002807DB00F01F0240090123CE
:1013D8009340024A42F82030704700BF00E100E025
:1013E800002808DB0901C9B200F1604000F561403E
:1013F80080F80013704700F00F000901C9B2014BD3
:101408001954704714ED00E000B500F00700C0F172
:10141800070CBCF1040F28BF4FF0040C031D062B6A
:101428000FD9C31E4FF0FF3E0EFA0CF021EA00015F
:1014380099400EFA03FE22EA0E0241EA02005DF824
:1014480004FB0023EEE70000074AD36823F4E063B7
:101458001B041B0C000200F4E060034343F0BF636D
:1014680043F40033D360704700ED00E010B5044644
:10147800054BD868C0F30220FFF7C6FF0146204697
:10148800FFF7AEFF10BD00BF00ED00E008B5FFF7A5
:1014980099FF08BD0138B0F1807F0BD24FF0E023EF
:1014A8005861054AF02182F823100020986107222C
:1014B8001A6170470120704700ED00E058B110B57F
:1014C800044643791BB101236371002010BD0371E9
:1014D80000F0E8FBF7E701207047000010B403684C
:1014E800D9B210390A4AA2FB01421209094CA25C7E
:1014F800C2655F2907D96FF3090304338365806DDB
:101508005DF8044B70476FF309038365F7E700BF85
:10151800ABAAAAAAB87B0008836A826992B9012B90
:101528000AD0022B02D00BB100207047C36A13F017
:10153800807F28D100207047C36AB3F1C07F24D0D0
:1015480000207047B2F5005F09D0022B25D9032B84
:1015580025D1C36A13F0807F23D100207047032B65
:1015680003D8DFE803F01404140A00207047C36AA4
:1015780013F0807F0DD100207047C36AB3F1C07F9C
:1015880009D00020704701207047012070470120D2
:1015980070470120704701207047012070470020E4
:1015A800704701207047000070B50446FFF760FDE2
:1015B800002C5BD00546022384F83530002384F8DC
:1015C80034302268136823F00103136023681A6813
:1015D80012F0010F0AD0FFF74BFD431B052BF5D97D
:1015E80020236365032084F8350070BD1A682049FC
:1015F80011406268A0680243E06802432069024320
:1016080060690243A0690243E0690243206A024319
:101618000A43616A04291ED01A602668756925F094
:101628000705636A1D43042B07D1A36A1D43E36AB8
:101638001BB12046FFF770FF90B975612046FFF790
:101648004DFFE26D3F2393408360002060650123D6
:1016580084F83530C9E7E16A206B01430A43DBE7C8
:1016680040236365012084F83500BEE70120BCE70C
:101678003F8010F0F0B583B0044600230193724B0D
:101688001D68724BA3FB0535AD0A876D3E68C26DB8
:1016980008239340334210D003681A6812F0040FED
:1016A8000BD01A6822F004021A60C26D0823934016
:1016B800BB60436D43F001034365E26D0123934032
:1016C800334209D02268526912F0800F04D0BB60FF
:1016D800636D43F002036365E26D04239340334274
:1016E80009D02268126812F0020F04D0BB60636D43
:1016F80043F004036365E26D10239340334224D022
:101708002268126812F0080F1FD0BB6023681A689D
:1017180012F4802F0DD01B6813F4002F04D1236C12
:101728009BB12046984710E0A36C73B120469847B8
:101738000BE01A6812F4807F03D11A6822F00802BD
:101748001A60236C0BB120469847E26D2023934022
:10175800334255D02268126812F0100F50D0BB6087
:1017680094F83530DBB2052B0ED023681A6812F4D2
:10177800802F33D01B6813F4002F2AD1636C002B01
:101788003ED0204698473BE02268136823F01603B2
:1017980013602268536923F080035361236CA3B15B
:1017A8002268136823F008031360E26D3F23934017
:1017B800BB60012384F83530002384F83430236D6E
:1017C800002B3FD0204698473CE0A36C002BE7D184
:1017D800EBE7E36BA3B12046984711E01A6812F4CF
:1017E800807F09D11A6822F010021A60012384F858
:1017F8003530002384F83430E36B0BB1204698472A
:10180800636DFBB1636D13F0010F17D0052384F8E6
:1018180035302268136823F001031360019B0133FC
:101828000193AB4204D823681B6813F0010FF5D16C
:10183800012384F83530002384F83430E36C0BB18D
:101848002046984703B0F0BD08000020B5814E1B24
:1018580000230F2B00F2E98070B582B065E085683F
:101868004FEA430E032404FA0EF425EA0405CC6873
:1018780004FA0EF42C438460446824EA02044A689B
:10188800C2F300129A40224342605CE0DC0808344C
:1018980050F8242003F00705AD004FF00F0E0EFAA4
:1018A80005FE22EA0E0E0A69AA4042EA0E0240F834
:1018B80024205CE0072200E0002202FA0EF22A430C
:1018C80002345A4D45F82420594A94686FEA0C02AC
:1018D80024EA0C054E6816F4801F01D04CEA040572
:1018E800534CA560E46802EA04054E6816F4001F2C
:1018F80001D04CEA04054E4CE560646802EA040530
:101908004E6816F4003F01D04CEA0405484C656067
:10191800246822404D6815F4803F01D04CEA040247
:10192800434C226001330F2B7DD801229A400C686A
:1019380004EA020C32EA0404F4D14C6804F003040B
:10194800013C012C8BD94A6802F00302032A09D012
:10195800C4685D000322AA4024EA02048A68AA40F7
:101968002243C2604A6802F00302022A8ED0046849
:101978004FEA430E032202FA0EF224EA02044A68EE
:1019880002F0030202FA0EF2224302604A6812F4DD
:10199800403FC7D000220192264A546C44F4804448
:1019A8005464526C02F480420192019A9C08A51C6E
:1019B8001E4A52F8255003F0030E4FEA8E0E0F22EE
:1019C80002FA0EF225EA02051B4A90423FF474AF70
:1019D80002F5806290421AD002F58062904218D0D7
:1019E80002F58062904216D002F58062904214D0CF
:1019F80002F58062904212D002F58062904210D0C7
:101A080002F5806290423FF455AF082255E7012263
:101A180053E7022251E703224FE704224DE705224C
:101A28004BE7062249E702B070BD70470038014015
:101A3800003C014000380240000002400AB18161C8
:101A48007047090481617047002800F0CC8070B5A8
:101A5800044690F83D30002B77D0242384F83D309D
:101A68002268136823F0010313602268136843F4A3
:101A7800004313602268136823F40043136001F0E5
:101A880019FD62685A4B9A4264D85A4B98428CBFE7
:101A980000230123002B40F0A8805749A1FB003107
:101AA8008B0C25686A6822F03F0242EA91426A601C
:101AB80021680A6A22F03F0266684D4DAE424FD84F
:101AC800013313430B622168CA6922F44F4222F0A2
:101AD800FF026568464B9D424CD8431E6D00B3FB20
:101AE800F5F3013340F6FC70034278D0C3F30B03DF
:101AF8001A43CA6121680B6823F0C003E269206AAF
:101B0800024313430B6021688B6823F4034323F0DB
:101B1800FF032269E068024313438B602168CB68A6
:101B280023F0FF036269A06902431343CB60226874
:101B3800136843F00103136000202064202384F815
:101B48003D30206384F83E0070BD80F83C3000F0E2
:101B5800C1F882E7294B98428CBF0023012399E7FB
:101B68004FF4967505FB03F3254DA5FB03539B091D
:101B78000133A6E7A668BEB9431E05EB450CB3FBC7
:101B8800FCF30133C3F30B03B3FA83F35B0943BBE1
:101B9800C6B9431E05EB4505B3FBF5F30133C3F3A3
:101BA8000B0343F40043A3E7431E05EB850C0CEB42
:101BB8008C0CB3FBFCF30133C3F30B03B3FA83F3CD
:101BC8005B09E4E7431E05EB850505EB8505B3FBDB
:101BD800F5F30133C3F30B0343F4404388E70423CD
:101BE80086E7012384E7012070470120ACE700BFA6
:101BF800A08601007F841E0083DE1B43FF083D0092
:101C0800D34D621082B0002100910B4B5A6C42F404
:101C180080425A645A6C02F480420092009A019100
:101C28001A6C42F080521A641B6C03F080530193C3
:101C3800019B02B0704700BF0038024000B589B070
:101C4800002303930493059306930793026803F113
:101C5800804303F590339A4202D009B05DF804FB43
:101C68000021019103F58C335A6C42F480725A6456
:101C78005A6C02F480720192019A02911A6B42F036
:101C880001021A631B6B03F001030293029B1023EA
:101C980003930323049303A90148FFF7D9FDDCE765
:101CA800000002400268094B9A4200D0704782B097
:101CB80000230193064B1A6B42F480521A631B6B84
:101CC80003F480530193019B02B070470030024037
:101CD800003802402DE9F0438DB0002307930893A4
:101CE80009930A930B9303684B4A934208D04B4AD3
:101CF80093422AD04A4A93424DD00DB0BDE8F083B2
:101D080000250095474C236B43F002032363236BA4
:101D180003F002030093009BC02307931223089348
:101D28000123099303230A9304230B9307A93E482D
:101D3800FFF78EFD0195236C43F400132364236C95
:101D480003F400130193019BD7E700250295354C56
:101D5800236B43F002032363236B03F00203029314
:101D6800029B4FF4406307931223089301230993BE
:101D780003230A9304230B9307A92B48FFF768FD55
:101D88000395236C43F480032364236C03F48003DA
:101D98000393039BB1E700250495224C236B43F082
:101DA80004032363236B03F004030493049B059546
:101DB800236B43F001032363236B03F001030593B3
:101DC800059B4FF4007307934FF01209CDF820904C
:101DD8004FF00108CDF8248003270A9704260B96B4
:101DE80007A91248FFF734FD4FF480730793CDF825
:101DF8002090CDF824800A970B9607A90C48FFF786
:101E080027FD0695236C43F400032364236C03F435
:101E180000030693069B70E70054004000580040FA
:101E2800005C004000380240000402400008024004
:101E38000000024000B585B000230093019302938F
:101E4800039302680B4B9A4202D005B05DF804FB7D
:101E5800022300934FF400730393684601F04AFB92
:101E680020B9054B0122C3F83C2EEEE7FEF7E8FD4A
:101E7800F7E700BF0028004000004742F0B58DB0EA
:101E880000230793089309930A930B930368454A21
:101E9800934207D0444A934227D0444A934248D0B9
:101EA8000DB0F0BD00210091414B5A6C42F48052B4
:101EB8005A645A6C02F480520092009A01911A6B8B
:101EC80042F001021A631B6B03F001030193019BAB
:101ED800E02307930223089303230A9305230B9314
:101EE80007A93448FFF7B4FCDAE700210291304B28
:101EF8001A6C42F480421A641A6C02F4804202920C
:101F0800029A03911A6B42F002021A631B6B03F0E8
:101F180002030393039B4FF4704307930223089330
:101F280003230A9305230B9307A92348FFF790FC83
:101F3800B6E7002404941E4B1A6C42F400421A645B
:101F48001A6C02F400420492049A05941A6B42F047
:101F580001021A631A6B02F001020592059A0694AF
:101F68001A6B42F004021A631B6B03F00403069316
:101F7800069B4FF4004307930227089703260A9607
:101F880006250B9507A90B48FFF762FC4FF4E053B1
:101F98000793089709940A960B9507A90748FFF72E
:101FA80057FC7DE70030014000380040003C00400D
:101FB80000380240000002400004024000080240CD
:101FC80010B584B003682B4A934207D02A4A93423B
:101FD80035D02A4A93423FD004B010BD04460023AE
:101FE800019302F50D32116C41F002011164126C7B
:101FF80002F002020192019A2148224A02604FF03F
:102008002062426040228260C3604FF480620261B5
:102018004FF4805242614FF480428261C3614FF4B1
:10202800403202624362FFF7BFFA28B9144B636279
:102038009C63A3639C63CFE7FEF702FDF6E70023EA
:102048000293114B1A6C42F004021A641B6C03F0E1
:1020580004030293029BBFE7002303930A4B1A6C05
:1020680042F008021A641B6C03F008030393039BF5
:10207800B2E700BF0004004000080040000C004028
:102088009C010020706002400038024000B589B011
:102098000023039304930593069307930368274A41
:1020A800934208D0264A93421BD0264A93422FD007
:1020B80009B05DF804FB00230093234B1A6B42F030
:1020C80002021A631B6B03F002030093009B1023A8
:1020D800039302230493079303A91C48FFF7B8FB53
:1020E800E6E700230193184B1A6B42F002021A63C9
:1020F8001B6B03F002030193019B4FF4407303939E
:1021080002230493079303A91048FFF7A1FBCFE725
:10211800002302930C4B1A6B42F001021A631B6BEB
:1021280003F001030293029B0F23039302230493FA
:10213800079303A90648FFF78BFBB9E700040040A3
:1021480000080040000C0040003802400004024033
:102158000000024000B589B000230393049305935F
:1021680006930793026803F1804303F588339A4284
:1021780002D009B05DF804FB0021019103F5943306
:102188005A6C42F010025A645A6C02F01002019222
:10219800019A02911A6B42F001021A631B6B03F059
:1021A80001030293029B4FF4C06303930223049339
:1021B800032306930723079303A90248FFF748FB65
:1021C800D7E700BF000002402DE9F04383B0D0F804
:1021D800008001EBC10300EB83039A6A5B6A9A42B1
:1021E80054D807460C469B1A01EBC10200EB820249
:1021F800D2699A4200D31A4602F103094FEA9909B3
:1022080015E006F103094FEA9909BB7904EBC40507
:1022180007EB8505296A0093B3B2E2B2404602F0A3
:102228003AFE2B6A33442B62AB6A3344AB6208EB49
:10223800441303F510639B699BB24B4512D304EB1F
:10224800C40307EB83039A6A5B6A9A420AD24BB1CA
:102258009B1A04EBC40207EB8202D6699E42D0D3D4
:102268001E46CEE704EBC40307EB83077A6ABB6A12
:102278009A420FD804F00F040122A240D8F834384B
:1022880023EA0203C8F83438002000E0012003B034
:10229800BDE8F0830020FAE730B583B000287AD093
:1022A8000446056890F89534C3B1032384F895343F
:1022B800B5F1A04F17D0206802F0A0FB237C8DF861
:1022C8000030231D0ECB206802F0D6FA70B102232D
:1022D80084F895340125284603B030BD80F894343D
:1022E80003F092F8E1E70023A371E4E700212068F6
:1022F80002F0E7FF024608B9034617E0022384F814
:1023080095340125E7E703EBC30104EB81010120C4
:1023180048750B75CB8500200876C861086203EB09
:10232800C30104EB810148620133DBB22079984292
:10233800E9D816E002EBC20304EB8303002183F81B
:10234800551283F8542283F85812C3F85C12C3F864
:10235800601202EBC20304EB8303C3F86412013278
:10236800D2B29042E6D8237C8DF80030231D0ECBE4
:10237800206802F099FB054620B1022384F89534C1
:102388000125A8E700236374012384F895342068A5
:1023980002F056FF9FE701259DE7036890F8942413
:1023A800012A1AD010B50446012280F89424DA686C
:1023B80012F0400F02D0427B012A09D0206802F0B7
:1023C80017FB206802F02EFF002084F8940410BD4B
:1023D8009A6B42F480329A63F0E70220704700005B
:1023E80070B504460D460068066C00EB411303F512
:1023F80030639A68A179012911D038498E4256D0A4
:102408003DB905EBC50304EB8303D3F86432002B15
:102418005ED0E9B2204603F041F8002070BD12F00A
:10242800080F09D02E498E42F7D912F4004FF4D084
:102438004FF400429A60F0E712F0200F02D02022F9
:102448009A60EAE712F0280FE7D125498E4206D9AB
:1024580012F4004F03D04FF400429A60DDE705EB19
:10246800C50204EB8202D2F874121B69C3F312038B
:10247800CB1AC2F868327DB905EBC50204EB8202BB
:10248800D2F864226AB105EBC50204EB8202D2F8E5
:1024980060121944C2F86012E9B2204602F0FEFF49
:1024A800BBE704F29C42012102F04AFFF4E712F470
:1024B800004F03D04FF400429A60AEE712F0200FAD
:1024C80001D020229A60E9B2204602F0E7FFA4E793
:1024D80004F29C42002102F033FF9AE70A31544F7C
:1024E8000A30544F38B5044603681D6C03EB41139A
:1024F800D3F8081B0E4A954207D903F5306311F447
:10250800004F02D04FF400429A60204602F0BEFF0E
:10251800074B9D4202D9A379012B01D0002038BD79
:1025280004F29C420121206802F00AFFF6E700BF8E
:102538000A30544F90F89434012B0CD010B504464F
:10254800012380F894344174006802F05BFE002097
:1025580084F8940410BD0220704738B505468C46AF
:1025680011F0800F2BD101F00F0E0EEBCE04A4005A
:1025780004F514740444211D0EEBCE0E00EB8E0EF0
:1025880000208EF855020CF00F0C81F800C0C2F341
:102598000A028A600B714A780AB1A1F81AC0022BA4
:1025A8001CD095F89434012B1BD0012385F8943462
:1025B800286802F054FB002085F8940438BD01F027
:1025C8000F0000EBC001890010312944043100EBF1
:1025D800C00005EB800001244475D4E700234B714B
:1025E800DFE70220EAE710B504460A4611F0800F3B
:1025F80020D101F00F0000EBC0039B0003F514731A
:102608002344191D00EBC00004EB8000002380F870
:10261800553202F00F020A7094F89434012B18D046
:10262800012384F89434206802F066FB002084F8C3
:10263800940410BD01F00F0000EBC0039B001033A1
:102648002344191D00EBC00004EB800001234375EF
:10265800DFE70220EDE710B5144601F00F0C0CEB94
:10266800CC01890001F51471014404310CEBCC0E46
:1026780000EB8E0ECEF86022CEF864320023CEF83E
:1026880068328EF855328EF854C28279012A04D005
:10269800006802F017FC002010BDCEF87042F7E782
:1026A80001F00F0101EBC10100EB8100D0F86802D5
:1026B800704710B5144601F00F0C0CEBCC018900E3
:1026C8001031014404310CEBCC0E00EB8E0ECEF829
:1026D8002020CEF824300023CEF8283001238EF8AD
:1026E80015308EF814C082799A4204D0006802F03E
:1026F800E9FB002010BDCEF83040F7E738B501F00F
:102708000F050279AA4238D304460B4611F0800F10
:102718001FD101EBC101890001F514710144043195
:1027280003EBC30300EB8303002283F85522012344
:102738008B700D7094F89434012B20D0012384F809
:102748009434206802F003FD85B1002084F89404D5
:1027580038BD05EBC501890010310144043105EB92
:10276800C50300EB830301225A75E0E704F29C429B
:10277800A179206802F0E4FDE7E70120E8E70220FC
:10278800E6E701F00F0302799A4230D310B5044608
:1027980011F0800F1ED103EBC301890001F51471FC
:1027A8000144043103EBC30200EB8202002082F8EB
:1027B800550200228A700B7094F89434012B18D0BB
:1027C800012384F89434206802F0EEFC002084F899
:1027D800940410BD03EBC301890010310144043196
:1027E80003EBC30200EB820201205075E1E70120F0
:1027F80070470220EDE708B511F0800F0CD101F009
:102808000F0101EBC101890001F514710144043184
:10281800006802F0E1FA08BD01F00F0101EBC10107
:102828008900103101440431F2E72DE9F04F83B0FB
:1028380004460568284602F040FD10B103B0BDE823
:10284800F08F0646206802F009FD0028F6D005F54D
:102858000067BB68C3F30D23C4F8D434206802F0C2
:10286800FDFC10F0020F04D02268536903F0020344
:102878005361206802F0F2FC10F0100F15D02268A6
:10288800936923F010039361D5F8208008F00F09AD
:1028980008F4F013B3F5802F4CD0B3F5402F6FD068
:1028A8002268936943F010039361206802F0D6FC14
:1028B80010F4002F76D1206802F0D0FC10F4802F9D
:1028C80040F0E080206802F0C9FC0028C0F2618175
:1028D800206802F0C3FC10F4006F09D0BB6813F045
:1028E800010F40F06E812268536903F4006353615D
:1028F800206802F0B3FC10F4805F40F06681206825
:1029080002F0ACFC10F4005F40F0B381206802F0E4
:10291800A5FC10F0080F40F0C481206802F09EFC6E
:1029280010F0800F00F0D781AB6923F08003AB6112
:102938000126C0E147F6F07318EA030FB0D04FEA5A
:10294800181A4FEAC903019309EBC90B04EB8B0B67
:10295800C8F30A12DBF86012284602F0D5FBDBF850
:102968006032CAF30A0A5344CBF86032DBF86832A3
:10297800019A4A4404EB82025344C2F868328FE752
:10298800082204F29C41284602F0BEFB09EBC90369
:1029980004EB8303D3F86822C8F30A184244C3F847
:1029A80068227DE7206802F05DFC8046B14635E08C
:1029B80005EB49130122C3F8082B49462046FFF7C7
:1029C8000FFD3CE005EB49130822C3F8082B4946E4
:1029D8002046FFF787FD35E009EBC90304EB8303C5
:1029E80093F85732012B41D005EB49130222C3F863
:1029F800082B1AF0200F04D005EB49132022C3F846
:102A0800082B1AF4005F05D005EB49134FF4005268
:102A1800C3F8082B09F101094FEA5808B8F1000F6B
:102A28003FF449AF18F0010FF4D05FFA89FB59461B
:102A3800206802F027FC824610F0010FB8D11AF086
:102A4800080FBFD11AF0100F04D005EB491310225C
:102A5800C3F8082B1AF0020FCBD06B6913F0800F64
:102A6800BAD07B6843F480637B60B5E709EBC903A0
:102A780004EB8303002283F857225946204602F0CC
:102A88005DFDB1E7206802F0F5FB8046B14625E020
:102A98005946204602F00EFD1AF0080F04D005EB47
:102AA80049130822C3F808291AF0100F04D005EBBF
:102AB80049131022C3F808291AF0400F04D005EB77
:102AC80049134022C3F808291AF0020F40D11AF01E
:102AD800800F59D109F101094FEA5808B8F1000FE0
:102AE8003FF4F0AE18F0010FF4D05FFA89FB5946B5
:102AF800206802F0D0FB824610F0010FCCD009F01C
:102B08000F02012101FA02F27B6B23EA02037B63C5
:102B180005EB4913C3F80819A3798B42B8D109EB1F
:102B2800C90304EB83031A6AD9690A441A62B9F122
:102B3800000FADD109EBC90304EB83035B6A002BDB
:102B4800A6D104F29C420121206802F0F9FB9FE71C
:102B58004946284601F058FF09EBC90304EB8303F3
:102B6800DB7D012B05D005EB49130222C3F80829A8
:102B7800ADE709EBC90304EB83030022DA75594674
:102B8800204602F0E1FCEEE749462046FFF71CFB31
:102B9800A0E77B6823F001037B6094F8CC34012B19
:102BA80008D0204602F0C4FC2268536903F00043B1
:102BB80053618DE6002184F8CC14204600F059F9C1
:102BC800F2E7204602F09CFC8DE67B6823F00103C7
:102BD8007B601021206801F017FF1AE005EB46130F
:102BE8004FF67F31C3F80819D3F8002922F40012F0
:102BF800C3F80029C3F8081BD3F8002B22F40012ED
:102C0800C3F8002BD3F8002B42F00062C3F8002B66
:102C180001362379B342E1D8FB6943F00113FB6124
:102C2800E37BDBB1D7F8843043F00B03C7F884307B
:102C38007B6C43F00B037B64D5F8003823F4FE6308
:102C4800C5F8003804F29C42A179206802F078FBAC
:102C58002268536903F48053536150E67B6943F457
:102C6800005343F02B037B613B6943F00B033B614B
:102C7800E2E7206802F056FB206801F0DFFFE07110
:102C8800266800F011FC0146E279304601F03EFE6C
:102C9800204602F020FC2268536903F40053536174
:102CA80034E6204602F011FC2268536903F0080359
:102CB800536132E601362379B3420CD906EBC603D9
:102CC80004EB830393F85732012BF3D1F1B220467A
:102CD800FFF791FDEEE7206802F0C0FA10F4801FBC
:102CE80025D1206802F0BAFA10F4001F58D0012349
:102CF80026E001362379B3421BD905EB4613D3F8F6
:102D0800002906EBC60304EB83031B7E012BF0D1DD
:102D1800002AEEDA06EBC60304EB83030122DA7518
:102D280066F07F01C9B22046FFF765FDE1E701269D
:102D3800E0E72268536903F480135361D1E7013354
:102D480022799A4227D905EB4312D2F8001B03EBEC
:102D5800C30204EB820292F85822012AEFD100291B
:102D6800EDDAD4F8D42482EA114212F0010FE6D148
:102D780003EBC30204EB8202012182F85712AA690D
:102D880042F08002AA616A6912F0800FD7D17B688D
:102D980043F400737B602268536903F400135361A2
:102DA800206802F05BFA10F0804F10D1206802F022
:102DB80055FA10F0040F3FF441AD23685D6815F033
:102DC800040F0DD1226853682B43536036E5204623
:102DD80002F0C0FB2268536903F080435361E5E7C2
:102DE800204602F0BDFBEDE790F89434012B14D097
:102DF80010B50446012380F8943411F0800F06D1F1
:102E0800006801F026FE002084F8940410BD01F04B
:102E18000F01006801F0F8FDF5E70220704710B4D3
:102E28000468606A31B940EA0240A06200205DF897
:102E3800044B70478C46A36A00EB1340002308E05C
:102E480003F1400104EB8101496800EB11400133B3
:102E5800DBB20CF1FF318B42F2D340EA02400CF1B5
:102E68003F0104EB81046060E0E7036859620020D9
:102E780070477047002800F0E08170B582B00446C2
:102E8800036813F0010F3BD09F4B9B6803F00C03C2
:102E9800042B2CD09C4B9B6803F00C03082B21D0EF
:102EA8006368B3F5803F4FD0B3F5A02F52D0964B4F
:102EB8001A6822F480321A601A6822F480221A6092
:102EC8006368002B50D0FEF7D3F805468E4B1B687D
:102ED80013F4003F14D1FEF7CBF8401B6428F5D952
:102EE8000320B1E1884B5B6813F4800FD8D0864B80
:102EF8001B6813F4003F03D06368002B00F09F8128
:102F0800236813F0020F54D07F4B9B6813F00C0F0B
:102F18003ED07D4B9B6803F00C03082B33D0E3684D
:102F2800002B68D0794B01221A60FEF7A1F80546FC
:102F3800754B1B6813F0020F54D1FEF799F8401B2C
:102F48000228F5D903207FE16F4A136843F48033E0
:102F58001360B5E76C4B1A6842F480221A601A684D
:102F680042F480321A60ABE7FEF782F80546664BFA
:102F78001B6813F4003FC3D0FEF77AF8401B64289F
:102F8800F5D9032060E1604B5B6813F4800FC6D16C
:102F98005D4B1B6813F0020F03D0E368012B40F070
:102FA8005081594A136823F0F803216943EAC103A1
:102FB8001360236813F0080F42D063696BB3534B57
:102FC8000122C3F8802EFEF753F805464E4B5B6F7F
:102FD80013F0020F34D1FEF74BF8401B0228F5D945
:102FE800032031E1484A136823F0F803216943EAD2
:102FF800C1031360DDE7454B00221A60FEF738F87D
:103008000546414B1B6813F0020FD2D0FEF730F88B
:10301800401B0228F5D9032016E13C4B0022C3F8D7
:10302800802EFEF725F80546374B5B6F13F0020F2D
:1030380006D0FEF71DF8401B0228F5D9032003E14E
:10304800236813F0040F77D02F4B1B6C13F0805FAD
:1030580033D1002301932C4B1A6C42F080521A642E
:103068001B6C03F080530193019B0125284B1B68BF
:1030780013F4807F23D0A368012B34D0052B38D0DC
:10308800214B1A6F22F001021A671A6F22F004020C
:103098001A67A368002B3DD0FDF7EAFF06461A4BD6
:1030A8001B6F13F0020F46D1FDF7E2FF801B41F2C0
:1030B80088339842F3D90320C6E00025D6E7144A9E
:1030C800136843F480731360FDF7D2FF0646104B74
:1030D8001B6813F4807FCED1FDF7CAFF801B02283E
:1030E800F5D90320B0E0084A136F43F001031367D2
:1030F800CFE7054B1A6F42F004021A671A6F42F0C5
:1031080001021A67C5E700BF0038024000004742C5
:1031180000700040FDF7ACFF0646524B1B6F13F0E2
:10312800020F08D0FDF7A4FF801B41F288339842B4
:10313800F3D9032088E0EDB9A369002B00F0838060
:10314800484A926802F00C02082A51D0022B17D084
:10315800454B00221A66FDF78BFF0446414B1B685E
:1031680013F0007F42D0FDF783FF001B0228F5D93A
:10317800032069E03B4A136C23F080531364DBE7B8
:10318800394B00221A66FDF773FF0546354B1B685D
:1031980013F0007F06D0FDF76BFF401B0228F5D91E
:1031A800032051E0E369226A1343626A43EA821307
:1031B800A26A5208013A43EA0243E26A43EA026316
:1031C800284A5360284B01221A66FDF751FF04462E
:1031D800244B1B6813F0007F06D1FDF749FF001B45
:1031E8000228F5D903202FE000202DE000202BE055
:1031F800012B2BD01B4B5B6803F48001E2699142E1
:1032080026D103F03F02216A8A4223D1616A47F638
:10321800C0721A40B2EB811F1ED103F44031A26A7A
:103228005208013AB1EB024F18D103F07063E26A19
:10323800B3EB026F14D1002006E001207047012093
:1032480002E0012000E0002002B070BD0120FBE791
:103258000120F9E70120F7E70120F5E70120F3E76E
:103268000120F1E7003802400000474208B5334B1F
:103278009B6803F00C03042B5BD0082B5BD12F4B0E
:103288005A6802F03F025B6813F4800F2CD02B4B76
:103298005868C0F388104FEA401CBCEB000C6EEB7A
:1032A8000E0E4FEA8E1343EA9C634FEA8C11B1EB82
:1032B8000C0163EB0E03DB0043EA5173C90011EB09
:1032C800000C43F10003590200234FEA4C2041EA65
:1032D800DC51FCF755FF194B5B68C3F3014301331D
:1032E8005B00B0FBF3F008BD144B5868C0F38810BE
:1032F8004FEA401CBCEB000C6EEB0E0E4FEA8E132F
:1033080043EA9C634FEA8C11B1EB0C0163EB0E03AB
:10331800DB0043EA5173C90011EB000C43F10003D1
:10332800990200234FEA8C2041EA9C51FCF728FFC0
:10333800D1E70348D7E70348D5E700BF0038024084
:1033480000127A000024F400002800F09B8070B579
:103358000D4604464F4B1B6803F007038B4208D207
:10336800CBB24C4A1370136803F007038B4240F04A
:103378008B80236813F0020F17D013F0040F04D0CA
:10338800454A936843F4E0539360236813F0080FA9
:1033980004D0414A936843F4604393603E4A93687B
:1033A80023F0F003A1680B439360236813F0010F27
:1033B80032D06368012B21D09A1E012A25D9364ABA
:1033C800126812F0020F61D033498A6822F00302B2
:1033D80013438B60FDF74CFE06462F4B9B6803F0AA
:1033E8000C036268B3EB820F16D0FDF741FE801B19
:1033F80041F288339842F0D9032042E0264A126805
:1034080012F4003FE0D101203BE0234A126812F099
:10341800007FD9D1012034E01E4B1B6803F007035D
:10342800AB4207D9EAB21B4B1A701B6803F00703BB
:10343800AB422DD1236813F0040F06D0164A9368C7
:1034480023F4E053E1680B439360236813F0080FFB
:1034580007D0114A936823F46043216943EAC10302
:103468009360FFF703FF0C4B9B68C3F303130B4AEE
:10347800D35CD8400A4B18600A4B1868FDF7ACFDBE
:10348800002070BD012070470120FAE70120F8E70D
:103498000120F6E7003C024000380240C87B0008E3
:1034A8000800002004000020014B1868704700BF86
:1034B8000800002008B5FFF7F7FF044B9B68C3F32B
:1034C8008223034AD35CD84008BD00BF00380240BD
:1034D800C07B000808B5FFF7E7FF044B9B68C3F300
:1034E8004233034AD35CD84008BD00BF00380240CD
:1034F800C07B000830B583B00446036813F0050F9D
:1035080006D1236813F0020F2ED1002003B030BD7E
:103518004A4B00229A66FDF7ABFD0546484B1B68EF
:1035280013F0006F06D0FDF7A3FD431B022BF5D95E
:103538000320EBE76268A3681B0743EA8213404A4B
:10354800C2F884303D4B01229A66FDF791FD05468D
:103558003B4B1B6813F0006FD3D1FDF789FD431B6C
:10356800022BF5D90320D1E700230193344B1A6CC1
:1035780042F080521A641B6C03F080530193019B44
:10358800304A136843F480731360FDF771FD0546F4
:103598002C4B1B6813F4807F06D1FDF769FD431B94
:1035A800022BF5D90320B1E7254B1B6F13F44073A9
:1035B80014D0E26802F440729A420FD0204B1A6F7E
:1035C80022F440721D490120C1F8400E0020C1F8C4
:1035D800400E1A671B6F13F0010F13D1E36803F451
:1035E8004072B2F5407F1ED0154A936823F4F81351
:1035F800936013490B6FE268C2F30B0213430B6726
:10360800002083E7FDF734FD05460D4B1B6F13F0D3
:10361800020FE3D1FDF72CFD401B41F2883398429D
:10362800F3D9032072E706498A6822F4F81223F0D6
:10363800704323F4407313438B60DAE7000047427A
:10364800003802400070004038B5044603680A4A52
:10365800DA60FDF70DFD05462368DB6813F0200FDF
:1036680007D1FDF705FD401BB0F57A7FF4D903209B
:1036780000E0002038BD00BF5F7F010070B503681F
:10368800DA6812F0400F02D00025284670BD0446C3
:10369800DA6842F08002DA60FDF7EAFC06460025A7
:1036A8002368DB6813F0400FEFD1002DEDD1FDF753
:1036B800DFFC831BB3F57A7FF2D9042363770125F6
:1036C800EEE70268D36823F08003D36003689B6841
:1036D80013F0200F01D00020704710B50446FFF703
:1036E800B3FF10B104236377012010BD00284AD02E
:1036F80010B50446437F53B1022363772368DA6821
:1037080012F0100F07D000200123637710BD037754
:10371800FEF790FBF0E7CA225A62236853225A62E6
:103728002046FFF7ABFF28B12368FF225A62002822
:10373800ECD1E9E72268936823F4E00323F040031F
:10374800936021688A68636820690343606903435A
:1037580013438B602368E2681A6122681369A168C1
:1037680043EA014313612046FFF7ABFF0028DBD192
:103778002268136C23F4802313642268136CA169F4
:103788000B431364D0E70120704700002DE9F04790
:1037980082B00546884617461E46FDF769FC0A9B17
:1037A8001B1A03EB0609FDF763FC8246284B1B68CE
:1037B800C3F3CB3309FB03F301932B689C6838EA06
:1037C80004040CBF01230023BB423DD0B6F1FF3FE8
:1037D800F3D0FDF74DFCA0EB0A00484503D2019B4E
:1037E80073BB9946E9E72A68536823F0E0035360FE
:1037F8006B68B3F5827F0BD0AB6AB3F5005F14D06A
:10380800012385F85130002385F8503003201CE04F
:10381800AB68B3F5004F02D0B3F5806FECD12A68DE
:10382800136823F040031360E6E72A68136823F45B
:10383800005313602A68136843F400531360DFE7EA
:10384800019B013B0193B8E7002002B0BDE8F08777
:103858000800002070B584B004460D461646009254
:103868000B4601220221FFF791FFD0B9174B1B68C5
:10387800174AA2FB03235B0D4FF47A7202FB03F392
:1038880003936368B3F5827F11D0039B3BB1039B1D
:10389800013B039323689B6813F0800FF5D104B0B4
:1038A80070BD636D43F0200363650320F7E700965E
:1038B8002B46002280212046FFF768FF0028EED023
:1038C800636D43F0200363650320E8E708000020E8
:1038D800819F5E1610B582B004460B464168B1F56B
:1038E800827F14D06168B1F5827F2AD1A168B1F5D1
:1038F800806F19D00092002280212046FFF746FFF2
:1039080030B3636D43F020036365032020E08168D2
:10391800B1F5004F02D0B1F5806FE3D1206801689E
:1039280021F040010160DDE70092002201212046DC
:10393800FFF72CFF60B1636D43F02003636503203C
:1039480006E00092002201212046FFF71FFF08B978
:1039580002B010BD636D43F0200363650320F7E7F1
:1039680000285AD010B50446436A33B94368B3F502
:10397800827F05D00023C36102E000230361436115
:103988000023A36294F85130002B40D0022384F81E
:1039980051302268136823F040031360636803F40E
:1039A8008273A26802F404421343E26802F40062DC
:1039B8001343226902F002021343626902F0010212
:1039C8001343A26902F400721343E26902F0380259
:1039D8001343226A02F080021343A26A02F40052DF
:1039E800216813430B60638B03F00403626A02F0DF
:1039F8001002216813434B602268D36923F40063E3
:103A0800D36100206065012384F8513010BD84F82B
:103A180050302046FEF732FAB8E7012070472DE90A
:103A2800F04383B00446894690461D46FDF720FBC7
:103A380094F85160F6B2012E40F0CC800746B9F1F7
:103A4800000F00F0C880B8F1000F00F0C48094F8AF
:103A58005030012B00F0C380012384F85030032339
:103A680084F8513000236365C4F83090A4F834809A
:103A7800A4F83680A363A387E38763642364A368F9
:103A8800B3F5004F1ED023681A6812F0400F03D117
:103A98001A6842F040021A60E368B3F5006F1CD060
:103AA800636813B1B8F1010F5FD1226B23681278F4
:103AB8001A73236B01332363E38E9BB2013B9BB2E2
:103AC800E38652E02268136823F0400313602268FB
:103AD800136843F480431360D5E7636813B1B8F102
:103AE800010F15D1226B23681288DA60236B023329
:103AF8002363E38E9BB2013B9BB2E38608E0FDF7AC
:103B0800B7FAC01BA84202D3B5F1FF3F15D1A5B142
:103B1800E38E9BB2002B42D023689A6812F0020F02
:103B2800EDD0226B1288DA60236B02332363E38EB5
:103B38009BB2013B9BB2E386EAE7012384F851304C
:103B4800002384F85030032645E0226B12781A735C
:103B5800236B01332363B4F836C01FFA8CFC0CF1D5
:103B6800FF3C1FFA8CFCA4F836C0E38E9BB2B3B1BD
:103B780023689A6812F0020FE7D1FDF779FAC01BA3
:103B8800A84202D3B5F1FF3F01D1002DEDD10123A9
:103B980084F85130002384F8503003261BE03A465D
:103BA80029462046FFF756FE08B120236365A3681F
:103BB80033B901932368DA6801929B680193019BEA
:103BC800012384F85130002384F85030636D13B911
:103BD800002600E00226304603B0BDE8F083022646
:103BE800F9E72DE9F04383B00446884691461F461D
:103BF8000A9DFDF73DFA064694F85130DBB262683B
:103C0800012B0AD0B2F5827F40F00581A268002A14
:103C180040F00581042B40F00481B8F1000F00F05A
:103C28000281B9F1000F00F00081002F00F0FF8041
:103C380094F85030012B00F0FC80012384F85030B8
:103C480094F85130DBB2042B02D0052384F85130AC
:103C580000236365C4F83890E787A787C4F83080E5
:103C6800E786A7862364636423681A6812F0400F06
:103C780003D11A6842F040021A60E368B3F5006F96
:103C880011D063680BB1012F0BD1226B2368127816
:103C98001A73236B01332363E38E9BB2013B9BB200
:103CA800E386012771E063680BB1012F0BD1226B0A
:103CB80023681288DA60236B02332363E38E9BB296
:103CC800013B9BB2E38601271BE023689A6812F048
:103CD800010F0ED0E28F92B25AB1DA68A36B1A8044
:103CE800A36B0233A363E38F9BB2013B9BB2E387D1
:103CF8000127FDF7BDF9801BA84202D3B5F1FF3FAC
:103D08001ED1E38E9BB21BB9E38F9BB2002B62D00E
:103D180023689A6812F0020FD7D0E28E92B2002A76
:103D2800D3D0002FD1D0226B1288DA60236B0233F4
:103D38002363E38E9BB2013B9BB2E3860027C4E773
:103D4800012384F85130002384F85030032063E0C5
:103D580023689A6812F0010F0ED0E28F92B25AB11E
:103D6800DA68A36B1A70A36B0133A363E38F9BB26A
:103D7800013B9BB2E3870127FDF77AF9831BAB422E
:103D880002D3B5F1FF3F1ED1EDB1E38E9BB213B95B
:103D9800E38F9BB2FBB123689A6812F0020FD7D069
:103DA800E28E92B2002AD3D0002FD1D0226B1278A3
:103DB8001A73236B01332363E38E9BB2013B9BB2DF
:103DC800E3860027C4E7012384F85130002384F8F0
:103DD8005030032020E0324629462046FFF73AFDBE
:103DE80090B9A36833B901932368DA6801929B6894
:103DF8000193019B012384F85130002384F850304B
:103E0800636D4BB1012007E020236365002384F82C
:103E18005030012000E0022003B0BDE8F08302200A
:103E2800FAE70220F8E70120F6E70120F4E701208D
:103E3800F2E70220F0E72DE9F04383B090F85160F3
:103E4800F6B2012E40F0B2800446894690461D46DF
:103E5800002900F0AC80002A00F0A9804368B3F57F
:103E6800827F01D1836853B3FDF702F9074694F8BE
:103E78005030012B00F09F80012384F85030042338
:103E880084F8513000236365C4F83890A4F83C8066
:103E9800A4F83E802363A386E38623646364A3684F
:103EA800B3F5004F15D023681A6812F0400F03D1FC
:103EB8001A6842F040021A60E368F3B143E0042351
:103EC80080F85130009513460A46FFF78AFE0646E9
:103ED8006DE02268136823F04003136022681368BA
:103EE80023F480431360DEE7FDF7C2F8C01BA84245
:103EF80002D3B5F1FF3F15D1A5B1E38F9BB2002BDB
:103F080042D023689A6812F0010FEDD0A26B1B7B98
:103F18001370A36B0133A363E38F9BB2013B9BB286
:103F2800E387EAE7012384F85130002384F850300E
:103F380003263CE0FDF79CF8C01BA84202D3B5F16C
:103F4800FF3F19D1C5B1E38F9BB2EBB123689A68E3
:103F580012F0010FEED0DA68A36B1A80A36B02335C
:103F6800A363B4F83EC01FFA8CFC0CF1FF3C1FFAA7
:103F78008CFCA4F83EC0E6E7012384F85130002306
:103F880084F85030032612E03A4629462046FFF7C7
:103F9800A1FC08B120236365012384F85130002374
:103FA80084F85030636D13B9002600E002263046CD
:103FB80003B0BDE8F0830226F9E7000030B4036AD5
:103FC800026A22F0010202624268846924F0730CDA
:103FD8000C6844EA0C0423F0020C8B6843EA0C03D7
:103FE800114DA84203D005F58065A84205D123F0FC
:103FF8000803CD682B4323F004030B4DA84203D0DC
:1040080005F58065A84207D122F440724D6945EA5A
:10401800020C8A6942EA0C02426084614A6842637F
:10402800036230BC704700BF0000014030B4036A2F
:10403800026A22F4807202624268C46924F0730C36
:104048000C6844EA0C0523F400738C6843EA0423E3
:10405800114CA04203D004F58064A04206D123F499
:104068000063CC6843EA042323F480630A4CA0422B
:1040780003D004F58064A04207D122F440524C6971
:1040880042EA04128C6942EA04124260C5614A6835
:10409800C263036230BC70470000014030B4036A59
:1040A800026A22F4805202624468C26922F4E6423B
:1040B8000D6842EA052223F400538D6843EA05336C
:1040C800094DA84203D005F58065A84204D124F41F
:1040D80080444D6944EA85144460C2614A680264B8
:1040E800036230BC704700BF0000014010B4036A8F
:1040F800046A24F001040462846924F0F00C4CEA98
:10410800021223F00A030B43826103625DF8044B39
:10411800704710B4036A046A24F0100404628469C6
:1041280024F4704C4CEA023223F0A00343EA011352
:10413800826103625DF8044B7047836823F0700363
:104148000B4343F0070383607047704770470000D4
:104158000368324A904212D0B0F1804F0FD0A2F5D6
:104168007C4290420BD002F58062904207D002F563
:104178008062904203D002F57842904203D123F046
:1041880070034A681343254A90422AD0B0F1804F01
:1041980027D0A2F57C42904223D002F5806290425B
:1041A8001FD002F5806290421BD002F578429042FF
:1041B80017D002F57052904213D002F580629042F7
:1041C8000FD002F5806290420BD0A2F5983290424F
:1041D80007D002F58062904203D002F580629042D7
:1041E80003D123F44073CA68134323F080034A6958
:1041F80013438A68C2620A688262084A904203D0FE
:1042080002F58062904201D10A690263026842F0B5
:10421800040202600122426103607047000001400D
:1042280040B310B5044690F83D30F3B1022384F84A
:104238003D30214651F8040BFFF78AFF012384F82B
:10424800463084F83E3084F83F3084F8403084F8B3
:10425800413084F8423084F8433084F8443084F89C
:10426800453084F83D30002010BD80F83C30FDF723
:10427800A7FEDBE70120704740B310B5044690F86D
:104288003D30F3B1022384F83D30214651F8040B48
:10429800FFF75EFF012384F8463084F83E3084F847
:1042A8003F3084F8403084F8413084F8423084F854
:1042B800433084F8443084F8453084F83D30002099
:1042C80010BD80F83C30FFF740FFDBE70120704766
:1042D80040B310B5044690F83D30F3B1022384F89A
:1042E8003D30214651F8040BFFF732FF012384F8D3
:1042F800463084F83E3084F83F3084F8403084F803
:10430800413084F8423084F8433084F8443084F8EB
:10431800453084F83D30002010BD80F83C30FFF770
:1043280015FFDBE70120704730B4036A026A22F008
:10433800100202624468826922F4E6420D6842EA89
:10434800052223F020038D6843EA0513114DA84286
:1043580003D005F58065A84206D123F08003CD6817
:1043680043EA051323F040030A4DA84203D005F59C
:104378008065A84207D124F440644D6944EA850465
:104388008D6944EA8504446082614A6882630362F5
:1043980030BC70470000014090F83C30012B28D019
:1043A80010B50446012380F83C300C2A1CD8DFE8FD
:1043B80002F0071B1B1B0C1B1B1B111B1B1B1600D6
:1043C8000068FFF7FBFD00200FE00068FFF7ACFF77
:1043D80000200AE00068FFF729FE002005E00068D9
:1043E800FFF75CFE002000E00120002384F83C3049
:1043F80010BD0220704738B590F83C30012B66D0CC
:1044080004460D46012380F83C300C2A5AD8DFE8D0
:1044180002F0075959591B595959305959594400EB
:104428000068FFF7CBFD2268936943F008039361A6
:104438002268936923F004039361226893692969C8
:104448000B43936100203EE00068FFF76DFF226890
:10445800936943F4006393612268936923F480634A
:10446800936122689369296943EA012393610020D3
:1044780029E00068FFF7DAFD2268D36943F00803F2
:10448800D3612268D36923F00403D3612268D36916
:1044980029690B43D361002015E00068FFF7FEFD92
:1044A8002268D36943F40063D3612268D36923F493
:1044B8008063D3612268D369296943EA0123D36100
:1044C800002000E00120002384F83C3038BD0220A1
:1044D800FCE710B4846824F47F4C42EA03220A43C0
:1044E80042EA0C0282605DF8044B704790F83C3059
:1044F800012B78D010B50446012380F83C30022304
:1045080080F83D300268936823F47F4323F07703F3
:1045180093600B68602B4CD023D8402B54D011D813
:10452800202B03D00AD80BB1102B05D119462068CF
:10453800FFF703FE002028E0012026E0302BF5D00D
:10454800012022E0502B0AD1CA6849680068FFF7A9
:10455800CDFD50212068FFF7F0FD002015E0012077
:1045680013E0B3F5805F3AD0B3F5005F14D0702B39
:1045780037D1CB684A6889680068FFF7AAFF2268C4
:10458800936843F0770393600020012384F83D305B
:10459800002384F83C3010BDCB684A6889680068FD
:1045A800FFF797FF2268936843F4804393600020E5
:1045B800EBE7CA6849680068FFF7ABFD602120682F
:1045C800FFF7BBFD0020E0E7CA6849680068FFF70D
:1045D8008DFD40212068FFF7B0FD0020D5E70020C1
:1045E800D3E70120D1E702207047000090F83C2073
:1045F800012A3DD010B40346012280F83C20022253
:1046080080F83D2002685068946820F0700C0868B3
:1046180040EA0C0050601A68164882421AD0B2F17B
:10462800804F17D0A0F57C40824213D000F58060FF
:1046380082420FD000F5806082420BD000F57840AE
:10464800824207D000F57050824203D0A0F5943022
:10465800824204D124F080044968214391600122F8
:1046680083F83D20002083F83C005DF8044B704738
:10467800022070470000014010B504460268136923
:1046880023F44053C1680B431361836802691A43DA
:1046980043691A43C3691A430168CB6823F4164374
:1046A80023F00C031343CB600268536923F440736F
:1046B80081690B4353610368314A934206D002F57E
:1046C8008062934202D0FEF7F5FE01E0FEF702FF9A
:1046D800E369B3F5004F29D00021031849411B189D
:1046E80041F10001C90041EA5371DB001818636801
:1046F8004FEA83024FEA937341F10001FBF740FD53
:10470800204AA2FB00314909642303FB11031B0162
:104718003233A2FB03235B0903F0F00202EB011220
:1047280003F00F03216813448B6010BD00230218A7
:1047380043EB0301121841F10001C90041EA52712B
:10474800D200101841F10001626892185B41FBF732
:1047580017FD0C4AA2FB00314909642303FB11032E
:10476800DB003233A2FB03235B095A0002F4F87220
:1047780002EB011203F00703216813448B60D4E7AE
:10478800001001401F85EB5160B310B5044690F846
:10479800413013B3242384F841302268D36823F4CA
:1047A8000053D3602046FFF767FF2268136923F49C
:1047B800904313612268536923F02A0353612268E6
:1047C800D36843F40053D36000206064202384F846
:1047D800413084F84230606310BD80F84030FDF706
:1047E800B9FCD7E701207047FEE7FEE7FEE7FEE7E2
:1047F800FEE770477047704708B5FCF72DFC08BD09
:1048080008B50248FCF736FF08BD00BF9C01002030
:1048180008B50248FEF709F808BD00BFB00A002035
:1048280082B000230193019B01330193019BB3F1F3
:10483800706F1CD80369002BF5DA0A23019302E094
:10484800019B013B0193019B002BF9D1036943F0C4
:1048580001030361019B01330193019BB3F1706F65
:1048680008D8036913F0010FF4D1002000E00320F9
:1048780002B070470320FBE784B010B5044603A8D4
:1048880080E80E009DF81130012B21D1A36B23F491
:104898008033A363E36823F4840323F04003E360D5
:1048A800E36823F44013E3609DF81830012B0AD025
:1048B8002046FFF7B5FF9DF80E30012B1CD0BDE850
:1048C800104004B07047E36843F48013E360EFE7F7
:1048D800E36843F04003E3602046FFF7A1FF9DF83B
:1048E800153023B9A36B43F48033A363E3E7A36BC9
:1048F80023F48033A363DEE7A36843F00603A360D1
:10490800A36843F02003A360D9E70000022A0AD075
:104918000922C36823F47053C360C36843EA82233F
:10492800C36000207047234B0B44234A93422FD97E
:10493800224B0B44224A93422CD9A1F57403A3F5C8
:104948001053204A934227D9A1F18373A3F5E74373
:104958001D4A934222D31D4B0B441D4A93421FD933
:104968001C4B0B441C4A93421CD31C4B0B441C4A43
:10497800934219D3A1F1B773A3F55853194A934237
:1049880014D3194B0B44194A934211D20722C0E79A
:104998000F22BEE70E22BCE70D22BAE70C22B8E7C9
:1049A8000B22B6E70A22B4E70922B2E70822B0E7E9
:1049B8000622AEE7405327FFFF340C00401E1BFFC2
:1049C8003F420F007F4F120020D6130060B6E5FE6D
:1049D8005FE3160000D3CEFE40771B00C05BB3FE3A
:1049E800C091210020753800E05459FEE09C410038
:1049F800836843F00103836000207047836823F0D5
:104A0800010383600020704782B000230193019B5B
:104A180001330193019BB3F1706F15D80369002B23
:104A2800F5DA00230193890141F020010161019B1E
:104A380001330193019BB3F1706F08D8036913F038
:104A4800200FF4D1002000E0032002B070470320BB
:104A5800FBE782B000230193019B01330193019B83
:104A6800B3F1706F13D80369002BF5DA00230193B3
:104A780010230361019B01330193019BB3F1706F14
:104A880008D8036913F0100FF4D1002000E00320C8
:104A980002B070470320FBE7D0F800381943C0F88C
:104AA800001800207047000084B0F8B5044607A835
:104AB80080E80E00002306E003F1400204EB8202C6
:104AC8000021516001330E2BF6D99DF8266006BBF4
:104AD800D4F8043843F00203C4F80438A36B43F451
:104AE8000013A363A36B23F40023A363A36B23F432
:104AF8008023A3630023C4F8003E9DF82130012BD6
:104B080015D19DF81F306BB900212046FFF7C4FF6F
:104B180011E0A36B23F40013A363A36B43F40023F6
:104B2800A363E7E701212046FFF7B6FF03E003216F
:104B38002046FFF7B1FF10212046FFF765FF054625
:104B480000B101252046FFF784FF00B1012504F5D7
:104B5800006C0023CCF81030CCF81430CCF81C30A2
:104B68000AE0CBB94FF00060C2F8000900220A61E0
:104B78004FF67F328A6001339DF81C10994210D994
:104B880004EB431202F51061D2F800090028E8DBB3
:104B98000020C2F80009E9E74FF09040C2F8000988
:104BA800E4E700230AE0BBB14FF09047C2F8007B6E
:104BB800002202614FF67F3282600133994210D998
:104BC80004EB431202F53060D2F8007B002FEADBD9
:104BD8000027C2F8007BEBE74FF00067C2F8007BC4
:104BE800E6E7DCF8103023F48073CCF810300023AB
:104BF800A3616FF0804363619DF81E301BB9A36900
:104C080043F01003A361A2690B4B1343A3619DF802
:104C180022301BB1A36943F00803A361012E04D01D
:104C28002846BDE8F84004B07047A36943F08043C4
:104C380043F00403A361F3E700383C80D0F8083858
:104C480003F00603022B04D0062B04D02BB9002056
:104C5800704702207047022070470F20704710B538
:104C680091F800C04B78012B23D000F5006ED0F8E6
:104C78001C380CF00F040122A24043EA0243C0F89A
:104C88001C3800EB4C10D0F8003B13F4004F0ED149
:104C9800D0F8003B8A68C2F30A02097942EA8142E5
:104CA800134343F0805343F40043C0F8003B002013
:104CB80010BDD0F81C280CF00F0E03FA0EF39BB2AF
:104CC8001343C0F81C3800EB4C10D0F8003913F42B
:104CD800004FECD1D0F800398A68C2F30A0209798A
:104CE80042EA814242EA8C52134343F0805343F430
:104CF8000043C0F80039DAE730B40B784A78012A63
:104D080026D000EB4313D3F8002B002A52DBD0F84F
:104D18003C480A7802F00F024FF0010C0CFA02F23C
:104D280024EA0242C0F83C28D0F81C28097801F08F
:104D38000F010CFA01FC22EA0C42C0F81C28D3F837
:104D4800001B234A0A40C3F8002B002030BC7047E0
:104D580000EB4313D3F80029002A1EDBD0F83C5897
:104D68000A7802F00F02012404FA02F292B225EA4C
:104D78000202C0F83C28D0F81C28097801F00F017D
:104D88008C40A4B222EA0402C0F81C28D3F8001907
:104D9800104A0A40C3F80029D7E7D3F8002942F09F
:104DA8000062C3F80029D3F8002942F08042C3F812
:104DB8000029D3E7D3F8002B42F00062C3F8002B98
:104DC800D3F8002B42F08042C3F8002B9FE700BFC6
:104DD8000078F3EF007833EC10B483B00246002378
:104DE8000193487801280BD00B7802EB4313D3F8D2
:104DF800000B00282DDB002003B05DF8044B704742
:104E08000B7802EB4313D3F80049002C01DB002098
:104E1800F2E7D3F8004944F00064C3F800490B787E
:104E280002EB4313D3F8004944F08044C3F8004927
:104E3800019B01330193019C42F210739C42DBD821
:104E48000B7802EB4313D3F80039002BF0DB00207A
:104E5800D2E7D3F8000B40F00060C3F8000B0B78E2
:104E680002EB4313D3F8000B40F08040C3F8000B6B
:104E7800019B01330193019842F21073984208D8BC
:104E88000B7802EB4313D3F8003B002BF0DB002038
:104E9800B2E70120B0E710B59DF8084084B90333A4
:104EA8004FEA930E4FF0000C08E000EB023303F5D5
:104EB800805351F8044B1C600CF1010CF445F4D3F9
:104EC800002010BDF0B583B00C784B78012B2DD0A5
:104ED80000EB441C0CF530631D696FF312051D616E
:104EE8001D696FF3DC451D61002C40F0CE800C6914
:104EF8000CB18C680C618C680C621D69C4F31204D7
:104F08002C431C611C6944F400241C61012A00F034
:104F1800DF800B79012B00F0E180DCF8003B43F0E7
:104F28000443CCF8003B002003B0F0BD0B6973BB11
:104F380000EB4413D3F810596FF3DC45C3F810594C
:104F4800D3F8105945F40025C3F81059D3F810596F
:104F58006FF31205C3F81059012A54D000EB44141A
:104F6800D4F8003943F00443C4F800390B79012B15
:104F780072D00B69002BD6D0D0F83438097801F0FC
:104F88000F0101228A401343C0F83438CBE700EB05
:104F9800441303F510631D696FF312051D611D6944
:104FA8006FF3DC451D6184B90E698D68AE4200D986
:104FB8000D611D6945F400251D611D690E69C6F363
:104FC800120C45EA0C051D61C6E70D698E6835446B
:104FD800013DB5FBF6F51E691FFA85FC494F07EA46
:104FE800C54535431D610D79012DE6D11D6925F0B3
:104FF800C0451D611D694FEA4C7C0CF0C04C45EA68
:105008000C051D61D9E7CB691BB100EB4412C2F84E
:1050180014390B79012B08D000EB4414D4F800396B
:1050280043F00443C4F800397DE7D0F8083813F496
:10503800807F08D100EB4412D2F8003943F00053C6
:10504800C2F80039E8E700EB4412D2F8003943F01F
:105058008053C2F80039DFE7D0F8083813F4807FAE
:105068000CD1D4F8003943F00053C4F80039009249
:105078000B8A0A78C968FFF70EFF54E7D4F800399D
:1050880043F08053C4F80039F1E70C6954B91C693E
:105098008D68C5F312052C431C611C6944F4002477
:1050A8001C6133E78D682C44013CB4FBF5F4A4B2D1
:1050B80004FB05F50D621D69124E06EAC4442C4333
:1050C8001C611C690D6AC5F312052C431C611DE7A0
:1050D800CA68002A3FF41DAF5A611AE7D0F80838A9
:1050E80013F4807F06D1DCF8003B43F00053CCF882
:1050F800003B12E7DCF8003B43F08053CCF8003B60
:105108000BE700BF0000F81F10B5844608464FEAB9
:10511800920E02F00302002305E00CF580510968A5
:1051280040F8041B01337345F7D37AB10CF5805C62
:10513800DCF800400021CBB2DB0024FA03F300F8CE
:10514800013B0131013A92B2002AF4D110BD0B782B
:105158004A78012A14D000EB4310D0F8002B002A1B
:1051680006DB2BB1D0F8003B23F08043C0F8003BAE
:10517800D0F8003B43F40013C0F8003B0020704710
:1051880000EB4310D0F80029002A06DB2BB1D0F839
:10519800003923F08043C0F80039D0F8003943F4CF
:1051A8000013C0F80039E9E70B784A78012A0ED0D5
:1051B80000EB4310D0F8003B23F40013C0F8003B89
:1051C8000B79023BDBB2012B15D90020704700EBAD
:1051D8004310D0F8003923F40013C0F800390B79D4
:1051E800023BDBB2012BF0D8D0F8003943F08053F2
:1051F800C0F80039E9E7D0F8003B43F08053C0F825
:10520800003BE2E7D0F8003823F4FE63C0F800382A
:10521800D0F80038090101F4FE610B43C0F80038EA
:1052280000207047D0F8003E23F00303C0F8003E8A
:10523800D0F8043823F00203C0F80438002070477F
:10524800D0F8003E23F00303C0F8003ED0F804383D
:1052580043F00203C0F804380020704742698069AF
:1052680010407047D0F8183800F50060C069184041
:10527800000C7047D0F8183800F50060C069184075
:1052880080B2704700EB4111D1F8082B00F500609F
:10529800406910407047D0F81028D0F8343801F031
:1052A8000F0C23FA0CF3DB01DBB2134300EB4110C4
:1052B80000F51060806818407047406900F00100F0
:1052C800704738B50546C36823F0C043C360012959
:1052D80013D019BBC36843F08043C36000240A207D
:1052E800FBF7CCFE0A342846FFF7E7FF08B1C72CC6
:1052F800F5D9C82C14D0002038BDC36843F000533A
:10530800C36000240A20FBF7B9FE0A342846FFF7D9
:10531800D4FF0128EDD0C72CF4D9EAE70120EBE748
:105328000120E9E7D0F800396FF30A03C0F8003923
:10533800D0F8043843F48073C0F80438002070476C
:1053480010B4046C154B9C4203D9D0F8003B002BD9
:1053580016DB0024C0F8104BD0F8104B44F400249E
:10536800C0F8104BD0F8104B44F01804C0F8104B9C
:10537800D0F8104B44F0C044C0F8104B012903D0BA
:1053880000205DF8044B7047C0F8142BD0F8003BA0
:1053980043F08023C0F8003BF2E700BF0A30544FC7
:1053A800034AD2F8883043F47003C2F88830704753
:1053B80000ED00E008B500220F49104800F080F920
:1053C80070B90F490D4800F092F960B90D490B48C2
:1053D80001F0A0F950B9094800F0A9F948B908BD89
:1053E800FBF72EFBEDE7FBF72BFBEFE7FBF728FBC3
:1053F800F1E7FBF725FBF2E7400000204C05002011
:105408008C000020E000002030B589B00023039311
:1054180004930593069307930368B3F1A04F01D053
:1054280009B030BD00250195164C236B43F00103EC
:105438002363236B03F001030193019B4FF4C053D3
:10544800039302230493032306930A23079303A9D0
:105458000D48FCF7FDF9636B43F080036363029525
:10546800636C43F480436364636C03F48043029386
:10547800029B2A4629464320FBF7F8FF4320FCF706
:1054880005F8CDE7003802400000024008B500F2F8
:105498009C41D0F8E00400F060F908BD08B501EBC4
:1054A800C10300EB8303D3F86022D0F8E00400F0D6
:1054B80027FA08BD08B501EBC10300EB83031A6A9C
:1054C800D0F8E00400F081FA08BD08B5D0F8E0048F
:1054D80000F0C1F908BD10B50446C17911B102291F
:1054E80009D10121D4F8E00400F096F9D4F8E004D9
:1054F80000F05FF910BDFBF7A3FA0121F2E7000005
:1055080010B50446D0F8E00400F089F92268D2F812
:10551800003E43F00103C2F8003EE37A23B1034A98
:10552800136943F00603136110BD00BF00ED00E0EE
:1055380008B5D0F8E00400F081F908BD08B5D0F846
:10554800E00400F0B0F908BD08B5D0F8E00400F0B8
:1055580093F908BD08B5D0F8E00400F0BBF908BD20
:1055680008B5D0F8E00400F0B7F908BD02780AB130
:105578000020704710B503461548C0F8E034C3F85A
:10558800C8024FF0A0430360042303710222C271D2
:105598000023837142728372C37203738373C3736C
:1055A800FCF77AFE80B90A4C80212046FDF75DFCA5
:1055B800402200212046FDF732FC802201212046AE
:1055C800FDF72DFC002010BDFBF73AFAEBE700BF12
:1055D800B00A0020D0F8C83211F0800F08D101F0CD
:1055E8007F0101EBC10103EB810393F85602704779
:1055F80001F07F0101EBC10103EB8103987D704746
:1056080008B5D0F8C802FDF74BF808BD0048704748
:10561800280800207047032805D8DFE800F00504B3
:105628000205012070470320704708B5D0F8C8026A
:10563800FCF7B3FEFFF7EFFF08BD08B594461A461E
:105648006346D0F8C802FCF788FFFFF7E4FF08BDFF
:1056580008B5D0F8C802FCF7C6FFFFF7DCFF08BDA5
:1056680008B5D0F8C802FDF7BFFBFFF7D4FF08BDA7
:1056780008B5D0F8C802FDF741F8FFF7CCFF08BD20
:1056880008B5D0F8C802FDF77CF8FFF7C4FF08BDDD
:1056980008B5D0F8C802FCF74DFFFFF7BCFF08BDFE
:1056A80008B5D0F8C802FDF704F8FFF7B4FF08BD45
:1056B80008B5D0F8C802FCF7CEFFFFF7ACFF08BD6D
:1056C80098B108B503460020C3F8B802C3F8C4026D
:1056D800C3F8D00209B1C3F8B412012183F89C12AF
:1056E8001A701846FFF742FF08BD0320704710B52F
:1056F80082B00023ADF80630B9B10446C0F8B8123C
:10570800D0F8D422CB6A43B1AE3250F82230DB6AEB
:105718000DF106009847C4F8D002D4F8D832013306
:10572800C4F8D832002002B010BD0320FBE708B54A
:10573800FFF77BFF08BD08B5D0F8B83213B11B6876
:10574800984708BD0020FCE708B5D0F8B8325B6878
:10575800984700B908BD0320FCE738B5044600F2B5
:10576800AA25284600F0CDF90123C4F89432B4F8EC
:10577800B032C4F8983294F8AA1201F01F03012B32
:1057880007D0022B0AD073B92946204600F08EFBB9
:1057980038BD2946204600F0C4FBF9E729462046D3
:1057A80000F001FCF4E701F080012046FFF760FFFC
:1057B800EEE7F8B50446012380F89C320023C0F8D0
:1057C80094324360C0F8A43280F8A032D0F8B832DE
:1057D800E3B15B68E3B1002198470746D0B940239D
:1057E800002211462046FFF728FF012684F863614E
:1057F8004025A4F860512B46002280212046FFF75F
:105808001CFF84F8236025843846F8BD0027E6E7A6
:105818000027E4E70327E2E701740020704790F8C7
:105828009C32DBB2042B04D090F89C32DBB280F8B7
:105838009D32042380F89C320020704790F89C32F7
:10584800DBB2042B01D00020704790F89D32DBB208
:1058580080F89C32F7E708B590F89C32DBB2032B4E
:1058680001D0002008BDD0F8B832002BF9D0DB6990
:10587800002BF6D09847F4E708B5D0F8D432AE3309
:1058880050F823205AB190F89C32DBB2032B01D098
:10589800002008BD136A23B198470020F9E70320C8
:1058A800F7E70020F5E708B5D0F8D432AE3350F862
:1058B80023205AB190F89C32DBB2032B01D0002090
:1058C80008BD536A23B198470020F9E70320F7E79A
:1058D8000020F5E70020704708B5012380F89C32C6
:1058E800D0F8B83223B15B680179984710B908BD80
:1058F8000020FCE70320FAE70020704700207047EB
:1059080038B504460D46002945D1D0F89432032B0A
:1059180001D0084638BDD0F85831B0F8602193421C
:1059280009D890F8AA3203F01F03012B12D0022BDA
:105938001FD0084613E09B1AC0F85831D0F86411FC
:105948001144C0F864119A4238BF1A4600F018FD95
:105958002846DFE790F8AE12FFF7CEFF20B994F89B
:105968009C32DBB2032B09D0204600F011FD2846FB
:10597800D0E790F8AE12FFF7C1FFEFE700F1AE03F2
:1059880054F823301A69002AEED0C4F8D4021B69EF
:1059980020469847E8E701F07F01FFF7AFFF90B98D
:1059A80094F89C32DBB2032BB4D100F1AE0354F867
:1059B80023309A69002AADD0C4F8D4029B692946DD
:1059C80020469847A6E70020A4E738B504460D46C8
:1059D80000294CD1D0F89432022B07D094F8A002B9
:1059E80018B1002384F8A032284638BD8269038C98
:1059F8009A420ED89A421AD094F89C32DBB2032B02
:105A080029D080212046FFF733FE204600F0CBFC4A
:105A1800E4E7D21A8261416A1944416200F0A8FCA5
:105A280000231A4619462046FFF742FED6E7426988
:105A38009342E1D8D0F898329A42DDD2002211463A
:105A480000F096FC0021C4F898120B460A4620463E
:105A5800FFF72EFEC2E7D4F8B832DA68002AD0D0B1
:105A68000022C4F8D422DB6820469847C9E741F0F1
:105A78008001FFF743FF90B994F89C32DBB2032B07
:105A8800B3D100F1AE0354F823305A69002AACD0E0
:105A9800C4F8D4025B69294620469847A5E7002048
:105AA800A3E70B88027813440B80037818447047E7
:105AB800428803789A4218D930B583B004460D4617
:105AC800ADF806306388BDF806209A420AD20DF177
